{
  "transactions": [
    {
      "hash": "0xe2d01a576149dcfadf2fdcf8d3a742b800eb6c6a2bd3454494b1cd77fd47e1f1",
      "transactionType": "CALL",
      "contractName": null,
      "contractAddress": "0x9e1ef5a92c9bf97460cd00c0105979153ea45b27",
      "function": "approve(address,uint256)",
      "arguments": [
        "0x97303aD8246367979eC596Fb29fc68253B9FCa73",
        "115792089237316195423570985008687907853269984665640564039457584007913129639935"
      ],
      "transaction": {
        "from": "0x5e869af2af006b538f9c6d231c31de7cdb4153be",
        "to": "0x9e1ef5a92c9bf97460cd00c0105979153ea45b27",
        "gas": "0x10aeb",
        "value": "0x0",
        "input": "0x095ea7b300000000000000000000000097303ad8246367979ec596fb29fc68253b9fca73ffffffffffffffffffffffffffffffffffffffffffffffffffffffffffffffff",
        "nonce": "0xb",
        "chainId": "0x15eb"
      },
      "additionalContracts": [],
      "isFixedGasLimit": false
    },
    {
      "hash": "0x4c0c194845aea4318021e6bbd44f020ed5436ab36bd8ff41f6c96410488c4b52",
      "transactionType": "CALL",
      "contractName": null,
      "contractAddress": "0x97303ad8246367979ec596fb29fc68253b9fca73",
      "function": "createPoll(uint256,string,string,string,uint256,string,string,string,string)",
      "arguments": [
        "1000000000000000000",
        "\"Will Celtic win the UEFA Champions League?\"",
        "\"https://picsum.photos/200/200?random=100\"",
        "\"Will Celtic really win? place your bets\"",
        "604800",
        "\"Celtic YES Token\"",
        "\"YCEL\"",
        "\"Celtic NO Token\"",
        "\"NCEL\""
      ],
      "transaction": {
        "from": "0x5e869af2af006b538f9c6d231c31de7cdb4153be",
        "to": "0x97303ad8246367979ec596fb29fc68253b9fca73",
        "gas": "0x13af03",
        "value": "0x0",
        "input": "0xf2632e130000000000000000000000000000000000000000000000000de0b6b3a76400000000000000000000000000000000000000000000000000000000000000000120000000000000000000000000000000000000000000000000000000000000018000000000000000000000000000000000000000000000000000000000000001e00000000000000000000000000000000000000000000000000000000000093a800000000000000000000000000000000000000000000000000000000000000240000000000000000000000000000000000000000000000000000000000000028000000000000000000000000000000000000000000000000000000000000002c00000000000000000000000000000000000000000000000000000000000000300000000000000000000000000000000000000000000000000000000000000002a57696c6c2043656c7469632077696e207468652055454641204368616d70696f6e73204c65616775653f00000000000000000000000000000000000000000000000000000000000000000000000000000000000000000000000000000000002868747470733a2f2f70696373756d2e70686f746f732f3230302f3230303f72616e646f6d3d313030000000000000000000000000000000000000000000000000000000000000000000000000000000000000000000000000000000000000002757696c6c2043656c746963207265616c6c792077696e3f20706c61636520796f7572206265747300000000000000000000000000000000000000000000000000000000000000000000000000000000000000000000000000000000000000001043656c7469632059455320546f6b656e0000000000000000000000000000000000000000000000000000000000000000000000000000000000000000000000045943454c00000000000000000000000000000000000000000000000000000000000000000000000000000000000000000000000000000000000000000000000f43656c746963204e4f20546f6b656e000000000000000000000000000000000000000000000000000000000000000000000000000000000000000000000000044e43454c00000000000000000000000000000000000000000000000000000000",
        "nonce": "0xc",
        "chainId": "0x15eb"
      },
      "additionalContracts": [
        {
          "transactionType": "CREATE2",
          "address": "0xeaf6093759f3e785023e2b32848f2c38f1442c8a",
          "initCode": "0x3d602d80600a3d3981f3363d3d373d3d3d363d73e1a406692735682a91dd04abb29eea08202726995af43d82803e903d91602b57fd5bf3"
        },
        {
          "transactionType": "CREATE2",
          "address": "0x1a495a10479ec42ad92c42ed08caaf008e8672f4",
          "initCode": "0x3d602d80600a3d3981f3363d3d373d3d3d363d73a086900561803b65eac4955c9ae8a7f79960f9db5af43d82803e903d91602b57fd5bf3"
        },
        {
          "transactionType": "CREATE2",
          "address": "0x52ba2c9f4b92e2daab441411a7b1c3377b3cbd4f",
          "initCode": "0x3d602d80600a3d3981f3363d3d373d3d3d363d73a086900561803b65eac4955c9ae8a7f79960f9db5af43d82803e903d91602b57fd5bf3"
        }
      ],
      "isFixedGasLimit": false
    }
  ],
  "receipts": [
    {
      "status": "0x1",
      "cumulativeGasUsed": "0x9ff75",
      "logs": [
        {
          "address": "0x9e1ef5a92c9bf97460cd00c0105979153ea45b27",
          "topics": [
            "0x8c5be1e5ebec7d5bd14f71427d1e84f3dd0314c0f7b2291e5b200ac8c7c3b925",
            "0x0000000000000000000000005e869af2af006b538f9c6d231c31de7cdb4153be",
            "0x00000000000000000000000097303ad8246367979ec596fb29fc68253b9fca73"
          ],
          "data": "0xffffffffffffffffffffffffffffffffffffffffffffffffffffffffffffffff",
          "blockHash": "0x40539aeb6ffed2c85697f6b7b09796417b275df858e17a6a40af13b8bd933453",
          "blockNumber": "0x2ec3809",
          "transactionHash": "0xe2d01a576149dcfadf2fdcf8d3a742b800eb6c6a2bd3454494b1cd77fd47e1f1",
          "transactionIndex": "0x2",
          "logIndex": "0xe",
          "removed": false
        }
      ],
      "logsBloom": "0x00000000000000000000000000000000000000000000000000000000000000000000000000000000000000000000000000000000000000000000000000200000000000000000000004000000000000000000000000000000000000000000100000000000000000000000000000000000000000000000000000000080000000100000000000000000000000000000000000000000000000000000080000000000020000000000000000000000000000000000000000000000000000000100000000000000000000000000080000000000000000000000000000000000000000000010000004000004000000000000000000000000000000000000000000000000",
      "type": "0x2",
      "transactionHash": "0xe2d01a576149dcfadf2fdcf8d3a742b800eb6c6a2bd3454494b1cd77fd47e1f1",
      "transactionIndex": "0x2",
      "blockHash": "0x40539aeb6ffed2c85697f6b7b09796417b275df858e17a6a40af13b8bd933453",
      "blockNumber": "0x2ec3809",
      "gasUsed": "0xb683",
      "effectiveGasPrice": "0xf4240",
      "from": "0x5e869af2af006b538f9c6d231c31de7cdb4153be",
      "to": "0x9e1ef5a92c9bf97460cd00c0105979153ea45b27",
      "contractAddress": null,
      "l1BaseFeeScalar": "0x109a0",
      "l1BlobBaseFee": "0x1",
      "l1BlobBaseFeeScalar": "0x9fe98",
      "l1Fee": "0x4bfef4c041",
      "l1GasPrice": "0xb2d05e00",
      "l1GasUsed": "0x640"
    },
    {
      "status": "0x1",
      "cumulativeGasUsed": "0xeeb5b",
      "logs": [
        {
          "address": "0x9e1ef5a92c9bf97460cd00c0105979153ea45b27",
          "topics": [
            "0xddf252ad1be2c89b69c2b068fc378daa952ba7f163c4a11628f55a4df523b3ef",
            "0x0000000000000000000000005e869af2af006b538f9c6d231c31de7cdb4153be",
            "0x00000000000000000000000097303ad8246367979ec596fb29fc68253b9fca73"
          ],
          "data": "0x0000000000000000000000000000000000000000000000000de0b6b3a7640000",
          "blockHash": "0x5655d9714af653f7703d0c455b4692f657da0740ff4f6a677c54d8206bec93cc",
          "blockNumber": "0x2ec380a",
          "transactionHash": "0x4c0c194845aea4318021e6bbd44f020ed5436ab36bd8ff41f6c96410488c4b52",
          "transactionIndex": "0x1",
          "logIndex": "0x0",
          "removed": false
        },
        {
          "address": "0x1a495a10479ec42ad92c42ed08caaf008e8672f4",
          "topics": [
            "0x8be0079c531659141344cd1fd0a4f28419497f9722a3daafe3b4186f6b6457e0",
            "0x0000000000000000000000000000000000000000000000000000000000000000",
            "0x000000000000000000000000eaf6093759f3e785023e2b32848f2c38f1442c8a"
          ],
          "data": "0x",
          "blockHash": "0x5655d9714af653f7703d0c455b4692f657da0740ff4f6a677c54d8206bec93cc",
          "blockNumber": "0x2ec380a",
          "transactionHash": "0x4c0c194845aea4318021e6bbd44f020ed5436ab36bd8ff41f6c96410488c4b52",
          "transactionIndex": "0x1",
          "logIndex": "0x1",
          "removed": false
        },
        {
          "address": "0x1a495a10479ec42ad92c42ed08caaf008e8672f4",
          "topics": [
            "0xc7f505b2f371ae2175ee4913f4499e1f2633a7b5936321eed1cdaeb6115181d2"
          ],
          "data": "0x0000000000000000000000000000000000000000000000000000000000000001",
          "blockHash": "0x5655d9714af653f7703d0c455b4692f657da0740ff4f6a677c54d8206bec93cc",
          "blockNumber": "0x2ec380a",
          "transactionHash": "0x4c0c194845aea4318021e6bbd44f020ed5436ab36bd8ff41f6c96410488c4b52",
          "transactionIndex": "0x1",
          "logIndex": "0x2",
          "removed": false
        },
        {
          "address": "0x52ba2c9f4b92e2daab441411a7b1c3377b3cbd4f",
          "topics": [
            "0x8be0079c531659141344cd1fd0a4f28419497f9722a3daafe3b4186f6b6457e0",
            "0x0000000000000000000000000000000000000000000000000000000000000000",
            "0x000000000000000000000000eaf6093759f3e785023e2b32848f2c38f1442c8a"
          ],
          "data": "0x",
          "blockHash": "0x5655d9714af653f7703d0c455b4692f657da0740ff4f6a677c54d8206bec93cc",
          "blockNumber": "0x2ec380a",
          "transactionHash": "0x4c0c194845aea4318021e6bbd44f020ed5436ab36bd8ff41f6c96410488c4b52",
          "transactionIndex": "0x1",
          "logIndex": "0x3",
          "removed": false
        },
        {
          "address": "0x52ba2c9f4b92e2daab441411a7b1c3377b3cbd4f",
          "topics": [
            "0xc7f505b2f371ae2175ee4913f4499e1f2633a7b5936321eed1cdaeb6115181d2"
          ],
          "data": "0x0000000000000000000000000000000000000000000000000000000000000001",
          "blockHash": "0x5655d9714af653f7703d0c455b4692f657da0740ff4f6a677c54d8206bec93cc",
          "blockNumber": "0x2ec380a",
          "transactionHash": "0x4c0c194845aea4318021e6bbd44f020ed5436ab36bd8ff41f6c96410488c4b52",
          "transactionIndex": "0x1",
          "logIndex": "0x4",
          "removed": false
        },
        {
          "address": "0xeaf6093759f3e785023e2b32848f2c38f1442c8a",
          "topics": [
            "0x8be0079c531659141344cd1fd0a4f28419497f9722a3daafe3b4186f6b6457e0",
            "0x0000000000000000000000000000000000000000000000000000000000000000",
            "0x00000000000000000000000097303ad8246367979ec596fb29fc68253b9fca73"
          ],
          "data": "0x",
          "blockHash": "0x5655d9714af653f7703d0c455b4692f657da0740ff4f6a677c54d8206bec93cc",
          "blockNumber": "0x2ec380a",
          "transactionHash": "0x4c0c194845aea4318021e6bbd44f020ed5436ab36bd8ff41f6c96410488c4b52",
          "transactionIndex": "0x1",
          "logIndex": "0x5",
          "removed": false
        },
        {
          "address": "0x1a495a10479ec42ad92c42ed08caaf008e8672f4",
          "topics": [
            "0xddf252ad1be2c89b69c2b068fc378daa952ba7f163c4a11628f55a4df523b3ef",
            "0x0000000000000000000000000000000000000000000000000000000000000000",
            "0x0000000000000000000000005e869af2af006b538f9c6d231c31de7cdb4153be"
          ],
          "data": "0x000000000000000000000000000000000000000000084595161401484a000000",
          "blockHash": "0x5655d9714af653f7703d0c455b4692f657da0740ff4f6a677c54d8206bec93cc",
          "blockNumber": "0x2ec380a",
          "transactionHash": "0x4c0c194845aea4318021e6bbd44f020ed5436ab36bd8ff41f6c96410488c4b52",
          "transactionIndex": "0x1",
          "logIndex": "0x6",
          "removed": false
        },
        {
          "address": "0x52ba2c9f4b92e2daab441411a7b1c3377b3cbd4f",
          "topics": [
            "0xddf252ad1be2c89b69c2b068fc378daa952ba7f163c4a11628f55a4df523b3ef",
            "0x0000000000000000000000000000000000000000000000000000000000000000",
            "0x0000000000000000000000005e869af2af006b538f9c6d231c31de7cdb4153be"
          ],
          "data": "0x000000000000000000000000000000000000000000084595161401484a000000",
          "blockHash": "0x5655d9714af653f7703d0c455b4692f657da0740ff4f6a677c54d8206bec93cc",
          "blockNumber": "0x2ec380a",
          "transactionHash": "0x4c0c194845aea4318021e6bbd44f020ed5436ab36bd8ff41f6c96410488c4b52",
          "transactionIndex": "0x1",
          "logIndex": "0x7",
          "removed": false
        },
        {
          "address": "0xeaf6093759f3e785023e2b32848f2c38f1442c8a",
          "topics": [
            "0xc7f505b2f371ae2175ee4913f4499e1f2633a7b5936321eed1cdaeb6115181d2"
          ],
          "data": "0x0000000000000000000000000000000000000000000000000000000000000001",
          "blockHash": "0x5655d9714af653f7703d0c455b4692f657da0740ff4f6a677c54d8206bec93cc",
          "blockNumber": "0x2ec380a",
          "transactionHash": "0x4c0c194845aea4318021e6bbd44f020ed5436ab36bd8ff41f6c96410488c4b52",
          "transactionIndex": "0x1",
          "logIndex": "0x8",
          "removed": false
        },
        {
          "address": "0x9e1ef5a92c9bf97460cd00c0105979153ea45b27",
          "topics": [
            "0xddf252ad1be2c89b69c2b068fc378daa952ba7f163c4a11628f55a4df523b3ef",
            "0x00000000000000000000000097303ad8246367979ec596fb29fc68253b9fca73",
            "0x000000000000000000000000eaf6093759f3e785023e2b32848f2c38f1442c8a"
          ],
          "data": "0x0000000000000000000000000000000000000000000000000de0b6b3a7640000",
          "blockHash": "0x5655d9714af653f7703d0c455b4692f657da0740ff4f6a677c54d8206bec93cc",
          "blockNumber": "0x2ec380a",
          "transactionHash": "0x4c0c194845aea4318021e6bbd44f020ed5436ab36bd8ff41f6c96410488c4b52",
          "transactionIndex": "0x1",
          "logIndex": "0x9",
          "removed": false
        },
        {
          "address": "0x97303ad8246367979ec596fb29fc68253b9fca73",
          "topics": [
            "0xbac2dcd08666df43267425db38f1112b87cac9e2ebfffb8ac2c9ef5a21ee4a0f",
            "0x0000000000000000000000005e869af2af006b538f9c6d231c31de7cdb4153be"
          ],
          "data": "0x000000000000000000000000eaf6093759f3e785023e2b32848f2c38f1442c8a0000000000000000000000001a495a10479ec42ad92c42ed08caaf008e8672f400000000000000000000000052ba2c9f4b92e2daab441411a7b1c3377b3cbd4f00000000000000000000000000000000000000000000000000000000000000c000000000000000000000000000000000000000000000000000000000000001200000000000000000000000000000000000000000000000000000000000000180000000000000000000000000000000000000000000000000000000000000002a57696c6c2043656c7469632077696e207468652055454641204368616d70696f6e73204c65616775653f00000000000000000000000000000000000000000000000000000000000000000000000000000000000000000000000000000000002868747470733a2f2f70696373756d2e70686f746f732f3230302f3230303f72616e646f6d3d313030000000000000000000000000000000000000000000000000000000000000000000000000000000000000000000000000000000000000002757696c6c2043656c746963207265616c6c792077696e3f20706c61636520796f7572206265747300000000000000000000000000000000000000000000000000",
          "blockHash": "0x5655d9714af653f7703d0c455b4692f657da0740ff4f6a677c54d8206bec93cc",
          "blockNumber": "0x2ec380a",
          "transactionHash": "0x4c0c194845aea4318021e6bbd44f020ed5436ab36bd8ff41f6c96410488c4b52",
          "transactionIndex": "0x1",
          "logIndex": "0xa",
          "removed": false
        }
      ],
      "logsBloom": "0x00000000000000000000000000000000000000000000000000a00000000100000000000000001000000000000000000000000000002000000200000000000000010000000102000004080008000000000001000000000000000000008000100000000000020000000000000000000800000000000000400000000090000000500000000208000000000800000000000000000000002080000000080000000000000000000010000000000000000000200000000000000000000000000100000000000002000002000000080000000000000000000004000000000000000020000000000004000004000000000000010000000000000000000000000000000000",
      "type": "0x2",
      "transactionHash": "0x4c0c194845aea4318021e6bbd44f020ed5436ab36bd8ff41f6c96410488c4b52",
      "transactionIndex": "0x1",
      "blockHash": "0x5655d9714af653f7703d0c455b4692f657da0740ff4f6a677c54d8206bec93cc",
      "blockNumber": "0x2ec380a",
      "gasUsed": "0xe4028",
      "effectiveGasPrice": "0xf4240",
      "from": "0x5e869af2af006b538f9c6d231c31de7cdb4153be",
      "to": "0x97303ad8246367979ec596fb29fc68253b9fca73",
      "contractAddress": null,
      "l1BaseFeeScalar": "0x109a0",
      "l1BlobBaseFee": "0x1",
      "l1BlobBaseFeeScalar": "0x9fe98",
      "l1Fee": "0xd31cae61b5",
      "l1GasPrice": "0xb2d05e00",
      "l1GasUsed": "0x115c"
    }
  ],
  "libraries": [],
  "pending": [],
  "returns": {},
  "timestamp": 1735913786,
  "chain": 5611,
  "commit": "e8c1798"
}